:020000040000fa
:10000000f0ff032031660900135f09006b640900eb
:10001000fb6809000b6b09006b6d09000000000014
:10002000000000000000000000000000ab580900c4
:100030005767090000000000ab580900ab580900e1
:10004000ab580900ab580900ab580900ab58090080
:10005000ab580900ab580900ab580900ab58090070
:10006000ab580900ab580900ab580900ab58090060
:10007000ab580900ab580900ab580900ab58090050
:10008000ab580900ab580900ab580900ab58090040
:10009000ab580900ab580900ab580900ab58090030
:1000a000ab580900ab580900ab580900ab58090020
:1000b000ab580900ab580900ab580900ab58090010
:1000c000ab580900ab580900ab580900ab58090000
:1000d000ab580900ab580900ab580900ab580900f0
:1000e000ab580900ab5809000000000000000000f8
:1000f00000000000ab580900ab580900ab580900dc
:10010000ab580900ab580900ab580900ab580900bf
:10011000ab580900ab580900ab580900ab580900af
:10012000ab580900ab580900ab580900ab5809009f
:10013000ab580900ab580900ab580900ab5809008f
:10014000ab580900ab580900ab580900ab5809007f
:10015000ab580900ab580900ab580900ab5809006f
:10016000ab580900ab580900ab580900ab5809005f
:10017000ab580900ab580900ab580900ab5809004f
:10018000ab580900ab580900ab580900ab5809003f
:10019000ab580900ab580900ab580900ab5809002f
:1001a000ab580900ab580900ab580900ab5809001f
:1001b000ab580900ab580900ab580900ab5809000f
:1001c000ab580900ab580900ab580900ab580900ff
:1001d000ab580900ab580900ab580900ab580900ef
:1001e000ab580900ab580900ab580900ab580900df
:1001f000ab580900ab580900ab580900ab580900cf
:10020000ab580900ab580900ab580900ab580900be
:10021000ab580900ab580900ab580900ab580900ae
:10022000ab580900ab580900ab580900ab5809009e
:10023000ab580900ab580900ab580900ab5809008e
:10024000ab580900ab580900ab580900ab5809007e
:10025000ab580900ab580900ab580900ab5809006e
:04026000ab5809008e
:020000040000fa
:10026400f8b500bff8bc08bc9e4670475d7b09002a
:10027400f8b500bff8bc08bc9e467047397b09003e
:020000040000fa
:08028400442309000100000001
:020000040000fa
:020000040008f2
:10000000ebfe904d53444f53352e3000020101005a
:100010000100028000f001003f00ff00000000002e
:10002000000000008000294f5ffe504e4f204e41df
:100030004d45202020204641542020202020000033
:1000400000000000000000000000000000000000b0
:1000500000000000000000000000000000000000a0
:100060000000000000000000000000000000000090
:100070000000000000000000000000000000000080
:100080000000000000000000000000000000000070
:100090000000000000000000000000000000000060
:1000a0000000000000000000000000000000000050
:1000b0000000000000000000000000000000000040
:1000c0000000000000000000000000000000000030
:1000d0000000000000000000000000000000000020
:1000e0000000000000000000000000000000000010
:1000f0000000000000000000000000000000000000
:1001000000000000000000000000000000000000ef
:1001100000000000000000000000000000000000df
:1001200000000000000000000000000000000000cf
:1001300000000000000000000000000000000000bf
:1001400000000000000000000000000000000000af
:10015000000000000000000000000000000000009f
:10016000000000000000000000000000000000008f
:10017000000000000000000000000000000000007f
:10018000000000000000000000000000000000006f
:10019000000000000000000000000000000000005f
:1001a000000000000000000000000000000000004f
:1001b000000000000000000000000000000000003f
:1001c000000000000000000000000000000000002f
:1001d000000000000000000000000000000000001f
:1001e000000000000000000000000000000000000f
:1001f000000000000000000000000000000055aa00
:10020000f0ffffff0f0000000000000000000000f2
:1002100000000000000000000000000000000000de
:1002200000000000000000000000000000000000ce
:1002300000000000000000000000000000000000be
:1002400000000000000000000000000000000000ae
:10025000000000000000000000000000000000009e
:10026000000000000000000000000000000000008e
:10027000000000000000000000000000000000007e
:10028000000000000000000000000000000000006e
:10029000000000000000000000000000000000005e
:1002a000000000000000000000000000000000004e
:1002b000000000000000000000000000000000003e
:1002c000000000000000000000000000000000002e
:1002d000000000000000000000000000000000001e
:1002e000000000000000000000000000000000000e
:1002f00000000000000000000000000000000000fe
:1003000000000000000000000000000000000000ed
:1003100000000000000000000000000000000000dd
:1003200000000000000000000000000000000000cd
:1003300000000000000000000000000000000000bd
:1003400000000000000000000000000000000000ad
:10035000000000000000000000000000000000009d
:10036000000000000000000000000000000000008d
:10037000000000000000000000000000000000007d
:10038000000000000000000000000000000000006d
:10039000000000000000000000000000000000005d
:1003a000000000000000000000000000000000004d
:1003b000000000000000000000000000000000003d
:1003c000000000000000000000000000000000002d
:1003d000000000000000000000000000000000001d
:1003e000000000000000000000000000000000000d
:1003f00000000000000000000000000000000000fd
:1004000046494c45202020205458542000004f5f7e
:10041000fe50000000004f5ffe500200040000008c
:1004200000000000000000000000000000000000cc
:1004300000000000000000000000000000000000bc
:1004400000000000000000000000000000000000ac
:10045000000000000000000000000000000000009c
:104400004461746100000000000000000000000032
:10441000000000000000000000000000000000009c
:10442000000000000000000000000000000000008c
:10443000000000000000000000000000000000007c
:10444000000000000000000000000000000000006c
:020000040000fa
:020000040009f1
:100000002de9f04f97b0119089469046019311a8c1
:1000100007f07cf90028c0f2a183bb4b53f82030d5
:100020000bb100221a70b94b13f8105003eb4003c8
:1000300093f801a0b64bb9f1000f08bf99462846c6
:1000400008f01afd10f0010f40f08a8310f0040f41
:1000500040f08b83d9f804301593002b60d0159aab
:10006000531eb3f5004f65d30123159399f8017022
:100070007b1edbb2022b28bf0127d9f80860731e54
:10008000b3f5004f59d206f00f03002b18bf4ff401
:100090000076d9f80c40b4f1807f51d8631e23401c
:1000a000002b18bf0024019bb3f5007fc0f05f83d5
:1000b000b8f1000f00f05d8399f80030029300233f
:1000c0001493baf1000f3dd0012300224146284687
:1000d00008f0c6f8002840f04e8398f8ff2198f801
:1000e000fe3143ea02231bb28a4a934240f0458321
:1000f00008eb0a1909f5d779baf1040f00f23f832a
:1001000099f80430002b00f03c8309f1080008f056
:10011000fbfb039009f10c0008f0f6fb149027e0bc
:1001200015aa0321284607f060fe002897d0012376
:1001300015939be71a4297d198e74ff40076a8e70a
:100140000024b0e714aa0121284607f04efe00283b
:1001500040f01983029b13f0080f07d1149b3f2b2b
:100160005cd93f3b14933f23039301e000230393a7
:10017000ddf850c0bcf17f0f40f20783b4f5813f3a
:1001800034bf630a8023029a12f002010b9148d017
:1001900002f00102002a0cbf032202220992bb4690
:1001a0004fea1c3ec6f3161207920398411c0d91ac
:1001b0000a440692159a511e0491524205924fea42
:1001c0005c420e9200f120020c920f970a96109555
:1001d000099d032d00f0ef82002b42d01c46bcfb92
:1001e000f4f240f6f5718a4250d90232520002f21e
:1001f000ff12510a069a01fb0b27049a3a4405980c
:100200000240d21bb2fbfbf00bfb1020002844d0b5
:10021000013a039802300890022041e00023039342
:10022000a6e7029a12f0010f00f0b18202220992b1
:10023000b5e72346cde7384a944510d9374a911c93
:10024000022422460a9e0e98824206d8640031f8a3
:10025000022f002af8d10a96b1e20a96afe20124f1
:10026000ade2bcf5805f0fd32d4a911c022404221d
:100270000a9e724506d8640031f8022f002af8d190
:100280000a96ace70a96aae70124a8e702eb420225
:100290000132520803320125a9e70d980890012088
:1002a000b2fbfbf20a440799039ebf1b07eb04173e
:1002b000bc45c0f0708200eb0109aceb09090bfbf7
:1002c0001299b9fbf4f9032d13d0022d3cd14ff64e
:1002d000f577b9452ad9002b40f06b826400402c99
:1002e000a7d90b9a002a40f06682802c1cd823469e
:1002f0006fe74ff6f577b94526d8002b40f04d82d1
:10030000012c0fd9630864e7ac340020143b0020b3
:10031000688a090055aaffffffff0100588a0900fb
:10032000488a09000e231ce20e231ae240f6f576f5
:10033000b14500f2fc80002b40f031826300802b3d
:100340007ff647af0e230ce20f9f0a9e06910590a1
:1003500004922b460995109d012b40f00c8140f62c
:10036000f573994500f21d824ff40072002140465a
:1003700008f0f9fb0b22d749404608f005fb0023a3
:1003800088f80b30022388f80c3088f80d40059b64
:1003900088f80e30c3f3072388f80f3088f8107000
:1003a00088f81160c6f3072688f812601499b1f531
:1003b000803f80f0018188f81310c1f3072188f88d
:1003c0001410019b5b0a0593f82388f815303f232e
:1003d00088f81830002388f81930ff2288f81a208e
:1003e00088f81b30039908f11c0008f01dfb099bdd
:1003f000032b00f0e68008f070f8014608f12700b2
:1004000008f012fb049b88f81630c3f3072388f822
:100410001730802388f82430292388f826301322c7
:10042000ad4908f12b0008f0affa552388f8fe31ea
:10043000aa2388f8ff310123039a4146284607f092
:1004400069fe002840f0af81019b23f4ff7222f087
:1004500001020021404608f086fbbbf1000f00f0ce
:10046000cb81099b012b9d4b18bf6ff007030193b4
:100470004ff0000908f1040307930a94089ecdf891
:100480000cb02f46cdf82ca0ddf814b0099b032b3f
:1004900000f00f810199404608f0c6fa049d4ff420
:1004a000007a2c465d4528bf5c46234632464146cd
:1004b000384607f02ffe002840f077815246002191
:1004c000404608f050fb26442d1bead109f10109f2
:1004d000039b4b45dad80a9c08963d46ddf82ca0d4
:1004e000069b099a032a08bf23461e46089fddf88b
:1004f000149034464e4528bf4c4623463a46414662
:10050000284607f007fe002840f051812744361b9b
:10051000efd1099a032a00f0e980149bb3f5803fdc
:1005200080f0f580022a0cbf04240124dfe00f9f35
:100530000a9e0691059004920995109d4ff4007251
:100540000021404608f00ffb0b226249404608f0ac
:100550001bfa002388f80b30022388f80c3088f847
:100560000d40059b88f80e30c3f3072388f80f3041
:1005700088f8107014e74ff400720021404608f02c
:10058000f2fa0b225349404608f0fef9002388f89e
:100590000b30022388f80c3088f80d40059b88f852
:1005a0000e30c3f3072388f80f3088f81070099bca
:1005b000032b08bf0026f3e608f1200008f034fa08
:1005c000ffe607f08aff014608f1430008f02cfa25
:1005d000049908f1240008f027fa022108f12c0000
:1005e00008f022fa012688f83060002388f83130bc
:1005f000062288f8322088f83330802388f840308b
:10060000292388f842301322354908f1470008f0c1
:10061000bbf9552388f8fe31aa2388f8ff31334609
:10062000039a4146284607f075fd08b1012398e07a
:100630000123039eb21d4146284607f06bfd4ff48f
:1006400000720021404608f08efa2649404608f024
:10065000ebf9254908f5f27008f0e6f909f1ff31e8
:1006600008f5f47008f0e0f9022108f5f67008f0da
:10067000dbf9552388f8fe31aa2388f8ff310123de
:10068000f21d4146284607f045fd01230d9a4146db
:10069000284607f03ffd019b23f4ff7222f0010280
:1006a0000021404608f05ffabbf1000f7ff4d9ae9d
:1006b00016e76ff00701404608f0b6f94ff0ff313a
:1006c000079808f0b1f96ff0704108f1080008f0e0
:1006d000abf9e3e62078090040780900f8ffff0055
:1006e0002c78090052526141727241610c24baf1b6
:1006f000000f0ed1029b13f0080f21d000221146eb
:10070000284607f072fb031c18bf012329e00624ca
:10071000ede7012300224146284607f0a1fd08b17c
:1007200001231ee008eb0a1a8af8b24101230022d5
:100730004146284607f0eefc0028dfd0012310e0f8
:10074000149b1293002313934346224612a9284672
:1007500003f0e0fc03460028d0d002e00b2300e0c9
:100760000323184617b0bde8f08f0a23f9e71123d9
:10077000f7e71123f5e70123f3e70e23f1e70e2353
:10078000efe70e23ede70123ebe70e23e9e7132361
:10079000e7e70e23e5e70e23e3e70e23e1e70e2369
:1007a000dfe70e23dde70123dbe70123d9e70123a0
:1007b000d7e70b9af2b1002b3ff43dad1c46bcfbd2
:1007c000f4f18a0002f20722520aa1f57f41f639bc
:1007d0000c488142ddd80c9d02fb0b570499791817
:1007e00005980140c91b01f12000691808910021fa
:1007f000032559e50e23b4e7069e089fddf8149003
:0808000077e600bffffffe0fc9
:020000040000fa
:020000040009f1
:100808002de9f04f93b01d460b680593d2e900ab74
:100818004b680c938b6808930b690f900d93cc6809
:10082800002200235046594607f0a2fb40b9059b19
:100838005e0733d4059b13f0080731d0202303e06b
:100848008bf000439b462d232370089b01275e1ed7
:10085800dff8f4922bf000434ff000084b45a5f168
:10086800410108bfc24504eb070009911ad1099b51
:10087800192b04eb070094bfad49ae4908f082f983
:10088800ac4808f015f9059b00930246089b0f98a1
:10089800214606f0f7f813b0bde8f08f2b23d3e715
:1008a800089ed5e7994508bfd04508d2099b192b62
:1008b80094bfa149a14908f065f9a048e1e73022b1
:1008c8000270099a7b1c1a2a34bf58227822e254f3
:1008d80050460022002359460237023e07f0ccfb5f
:1008e800002800f078819fed907b8ded027b00253c
:1008f8009ded027b0c9b8ded0a7bcde906ab002bb1
:10090800acbf99464ff018094ff00008dde90a23fb
:10091800dde9060102f00eff41ec100b05f068f965
:10092800dde90a2351ec100b8ded100b04f0c0f833
:1009380002460b46dde9060108f0a0f9804bcde937
:1009480006010022dde90a0104f0b2f808f101030a
:100958000e930c9b002bcde90a0106da0022002336
:10096800dde9060107f088fb28b9c14500f33981a4
:1009780009f101030e930022724bdde90a0104f02c
:1009880097f88046894602460b46dde9060107f0de
:10099800effa60b942464b46dde9060107f06cfb09
:1009a80048b1dde9100106f0c9ffc00703d44ff0d4
:1009b80000084ff0000942464b465046594602f09f
:1009c800e5f9cde90601dde9062121f000435e499c
:1009d80000208b4208bf82423ff449af4ff0000924
:1009e800b846cb46ca460d9b053b434533dddde99a
:1009f8000223dde9060102f09dfe41ec100b05f033
:100a0800f7f851ec100b8ded0a0b06f097ff002854
:100a180040f0ea80baf1000f00f0e68009f1010920
:100a2800dde90223dde90a0104f042f802460b463b
:100a3800dde9060108f022f9414bcde90601002263
:100a4800dde9020104f034f80e9b0af1010a53456e
:100a5800cde90201c7d1bbf1000f1dd104eb08039a
:100a6800b9f1000f00f004810c9a002a40f30081cc
:100a7800059ad10700f1fc802e221a7009eb0802b2
:100a88002244302103f8011f9342fbd1c8446fea86
:100a9800090908f101084e440d9b0d990022013bfc
:100aa800954204f80820c1f1020ee25404eb080054
:100ab800bcbf6d4201220a21002d40f0cb800eeb15
:100ac800030cbcf1010f00f0c580002a03f1ff31cf
:100ad80014bf2d222b226254099a023b1a2a34bfd2
:100ae80050227022984504eb0301e25401da08f021
:100af80049f8059b03f00303022b12d1b51e002d04
:100b08000fdd204607f0d4ff013e2044031b9f421f
:100b180040f3aa802a463021e01907f0c1ff0023dc
:100b280008932046ade600bf000000000000f03f3b
:100b3800d88a0900dc8a0900e08a0900e48a0900e9
:100b48000000b03f000020400000f07fcde902899e
:100b58000135dde902231046194602f017f98046ef
:100b6800894602460b465046594607f001fa0028c6
:100b7800ecd0dff820914ff00008dde90223504661
:100b8800594607f0f5f900283ff4b2ae0022404b71
:100b9800dde9020103f08cff0022002307f06cfa64
:100ba80078b142464b46dde9020103f081ff424637
:100bb800cde902014b465046594603f079ff82467b
:100bc8008b46dde902010022314b03f071ff013d44
:100bd800cde90201d1e79fed2c7b05468ded027b27
:100be800b7e7ddf8388091e6bbf1000f0ad1baf11a
:100bf800000f07d02e2304f80830013e08f1010841
:100c08004ff0010b434604eb08014a4604e04ff05d
:100c1800300c01f801cb013a002af8d1099a0928c9
:100c280008f1010806f1ff36d4bf30305730192ad1
:100c3800c8444b44a6eb090608d840f02002613aa4
:100c4800192a03d8109307f07dff109be0544ff04a
:100c58000009e5e6b5fbf1fc013b01fb1c5530350d
:100c6800e554013e654627e710f8013983554de7fd
:100c7800059ad2067ff510af2e2208f101081a70e6
:100c88000ae700bfaff30080000000000000f03f5b
:080c98000000e03f00005043a2
:020000040000fa
:020000040009f1
:100ca0002de9f04f2ded028b97b0d2e9009a0e930b
:100cb0000b680493d1e9016305930b690f900991c7
:100cc0001493cd68002200234846514607f054f99a
:100cd00048b9049b580734d4049b13f008030c93c1
:100ce00031d0202303e08af000439a462d232b7055
:100cf000059b03f1ff3b01230c930c9969180d919f
:100d00004b492af0004300208b4208bf81451dd18a
:100d10000e9b0d98413b192b94bf4649464907f05d
:100d200035ff454807f0c8fe049b00930246059b2b
:100d30000f98294605f0aafe17b0bdec028bbde85e
:100d4000f08f2b23d3e7ddf814b0d6e7994208bf24
:100d500048450ad20e9b0d98413b192b94bf374949
:100d6000374907f013ff3648dce7002200234846e6
:100d7000514607f085f99fed2c7b8ded027b48b342
:100d800000240e9807f0dbfe002ec3b20893c0f2d9
:100d9000b881672b5cd1002e08bf0126231d02db22
:100da000b442c0f2a781652763e0cde9027801343f
:100db0000022244bdde9020103f07efe4a46534641
:100dc0000746884607f0bcf80028eed00027dff879
:100dd0007c801ee00446ebe7444511da87b9002227
:100de000194b4846514603f067fe002281468a4669
:100df000154bdde9020103f05ffecde90201012799
:100e0000dde9020100220f4b02f098fccde902015e
:100e1000013cdde902234846514607f0adf80028c1
:100e2000dad1aee7aff30080000000000000f03f31
:100e30000000f07fe88a0900ec8a0900f08a0900c6
:100e4000f48a09000000244000005043d4feffff54
:100e5000089f662f06f101060bd1002c04da9fede6
:100e6000ac7b8ded027b0024089b672b18bf3619e5
:100e700066279ded027bcde9069a8ded0a7b4ff04a
:100e80000008dde90a23dde9060102f057fc41ec28
:100e9000100b04f0b1fe51ec100bb0ee408af0eef6
:100ea000608a06f04ffdb0ee480af0ee680a069b35
:100eb0001093079b159083f0004311939ded0a1b3f
:100ec0009ded102b07f03afa53ec102b83f0004302
:100ed0000793dde90a010022914b8ded060a02f02d
:100ee0002dfc08f101084645cde90a01c9d10022cf
:100ef0008c4b03f0e1fdcde90a0102460b46dde92a
:100f0000060107f039f848b9dde90a23dde90601f1
:100f100007f0b6f830b1159bd90703d49fed7e7b5f
:100f20008ded0a7bdde90a234846514601f032ff88
:100f3000652f14bfa1464ff00009a9eb06031093db
:100f4000049b0c9ecde906014ff0000803f010034e
:100f5000cdf828801593109b9945b24604d0099b83
:100f60001b69053bb34251d80a9b33b9049bda068f
:100f700042bf2e2305f80a3001360022652f05eb0b
:100f80000600aa5529d1149b1499013b9442ea54b6
:100f9000c1f1030ebcbf644201220a21002c40f0c3
:100fa0009a800eeb030cbcf1000f00f39480002a32
:100fb00003f1ff3114bf2d222b226a540e9a413abd
:100fc000023b192a98bf45279e4205eb0301ef54c7
:100fd000abf1020b01da07f0d9fd049b03f0030328
:100fe000022b11d1bbf1000f0edd284607f064fd86
:100ff00005eb0b030c9a824278dd5a4630210d989e
:1010000007f052fd0023059328468be6dde9022315
:10101000dde9060102f092fb41ec100b04f0ecfd5f
:1010200051ec100bb0ee408af0ee608a06f08afcbc
:10103000159b03432ad1089b672b27d1b9f1000fd9
:1010400031da08f1010a069b1293079bb0ee480ab9
:10105000f0ee680a83f0004313939ded021b9dedb3
:10106000122b07f06bf953ec102b83f0004307931e
:10107000dde9020100222a4b8ded060a02f05efb3b
:1010800009f1ff39cde90201d04664e70a9b53b963
:10109000b9f1000f07da2e2305f80a3001230136d3
:1010a0000bf1ff3b0a933246ab19c24605e04ff005
:1010b000300103f8011b0af1ff3abaf1000ff6d133
:1010c0000bf1ff330136a3eb080b4644a844303044
:1010d00008f80200b7e7b4fbf1fc013b01fb1c443c
:1010e0003034ec540bf1ff3b644657e72a5c1a544a
:1010f00001387fe7002cbff6bbae6627a9e60626bf
:101100004ce6089b672bfad01f460626a1e600bfd7
:10111000000000000000f03f0000000000000000a0
:0811200000002440000014400f
:020000040000fa
:020000040009f1
:101128002de9f04f83b09d4b1e68197d21b93378a6
:101138004bbb03b0bde8f08f3378002b40f0e28161
:1011480030460022531cdbb29942f2d010f8284fe7
:101158000cb91a46f6e70232d2b2012a00f0d3815e
:101168008e490a75ff2be4d003eb8303dc003519a5
:101178006b79012b09d02b7b042bdad8dfe803f03d
:101188000a1d2e4f7f000b46eee72b7b042b10d059
:1011980000232b7395f82030012b00f08781002362
:1011a800335585f820306b71ab70eb706b702b7119
:1011b800bfe77a4b00225a75eae7ab685b6a0321fe
:1011c800e88898476861b0f1ff3fb2d0ab681b6907
:1011d8002a467349984702232b73aae7ab681b6812
:1011e8006869984768b195f8203033b9ab685b688f
:1011f80068699847686203232b73012385f82030b8
:1012080097e795f82030012b03d0002385f820308c
:101218008fe7284607f020fb00232b71f5e75f4b8b
:101228005b7d012b85d05d4b01225a756b6a1b696a
:101238001b68b3f5007f3abf4ff40076b6fbf3f6b0
:101248000126564c4ff400720021206907f028fc53
:10125800022385f821306869ab6800969e680023f0
:10126800226905f11c01b047eb69b3f1ff3f02d0d9
:1012780004232b735de7494b00225a7559e795f90a
:101288002130022b06d06bb1444b00225a75032340
:101298002b734ee7ab68db6a002b3ff44aaf286933
:1012a800984746e73d4b1c6900236b7094f8fe3164
:1012b800552b6cd04ff0000847464ff0ff09374bcd
:1012c8005c682378002b5cd1344bd3f810a02b79c1
:1012d80001332b712a7e334b53f822b0584607f05e
:1012e800e7fbc6b232465946a01c07f01ffbaa7896
:1012f800a3199a70731c54fa83f32a7930329a70be
:10130800b31c54fa83f300229a70a56184f8019003
:1013180067b317f0010f00f0b3801746b9f1ff0f5c
:1013280024d0214b33f817301af8032062709a44fe
:101338009af80b209af80a301b0403eb02639af818
:10134800092003eb02239af80820134463619af8f2
:1013580007209af806301b0403eb02639af805206d
:1013680003eb02239af8042013442361b8f1000f19
:1013780000f096800d4bea781a7001375f700123f0
:101388002370064b00225a7502232b73d1e694f87a
:10139800ff31aa2b0cd04ff000088de76c3a0020e3
:1013a80045810900843a0020148c0900143b002070
:1013b8002378eb2b2bd094f8c20107f0f7f800281c
:1013c8004cd16b7800276b7094f8d20107f0eef8d7
:1013d80020b147f002076b7801336b7094f8e20193
:1013e80007f0e4f8002840d047f004076b78013391
:1013f8006b7094f8f20107f0d9f890b347f008073a
:101408006b7801336b704ff00108c14657e763787a
:101418003c2b03d0582b01d0fe2bccd1a378902b9a
:10142800c9d101236b7094f85230462b42d094f8fe
:101438005330412b44d094f85430542b46d094f870
:101448003630462b48d094f83730412b4ad094f8a0
:101458003830542b4cd04ff000082de701231f469d
:10146800b1e74ff00108c14629e794f8f20107f007
:101478009df80028c2d1002f40d14ff001081be78a
:1014880017f0020f01d0012748e717f0040f01d029
:10149800022743e707f00807002f18bf03273de797
:1014a8001b4bea781a7000225a7068e7284607f042
:1014b800d3f974e64ff0000847464ff00b09fee6f3
:1014c8004ff0000847464ff00b09f8e64ff00008c8
:1014d80047464ff00b09f2e64ff0000847464ff039
:1014e8000609ece64ff0000847464ff00609e6e625
:1014f8004ff0000847464ff00609e0e64ff00108b4
:10150800c146dce60023034a002111752ce600bf22
:08151800143b00206c3a002096
:020000040000fa
:020000040009f1
:101520002de9f04f87b081468846036803930b7816
:101530002f2b05d05c2b03d0039b9b6983600ae0b3
:101540004346984613f8012b2f2afad05c2af8d08c
:101550000023c9f8083098f800301f2b02d9dff8b3
:1015600068a333e1802389f82f300021484604f036
:10157000e1fd03468ce183b21f2b3cd92f2b29d0f0
:101580005c2b27d07f2b14d9fe2c00f2c48025f8c9
:101590001430013405a806f03cffb0f1ff3f00f025
:1015a000ba80b0f5803fe6d3030c25f8143001343f
:1015b000e1e71846222b00f0ae802a220af10d0145
:1015c000824200f0a88011f8012f002af8d1dbe751
:1015d00001330593059b1a782f2af9d05c2af7d09e
:1015e0000027ddf81480012c07d0022c1bd00cb38f
:1015f00005eb440222e00427f3e72b882e2bf7d1da
:10160000002325f8143009f123029c428cbf2e21bf
:10161000202102f8011f01330b2bf6d147f02007e0
:1016200089f82f70b6e06b882e2be1d12b882e2bfa
:10163000ded1e5e7ab466be0013c68d032f8023d15
:10164000202bf9d02e2bf7d06100002325f8143081
:10165000002c60d02b88202b5fd12a460026013633
:1016600032f8023f202bfad0002e57d047f0030764
:10167000ffb28a1eab18aa5a2e2a05d0013c03d00d
:1016800033f8022d2e2af9d10b22202109f1240052
:1016900007f069fa0823009300230193029306f1ef
:1016a000010b35f8160000284dd020283bd02e28fd
:1016b00037d0019b009a93423ad2a34500f0f480c0
:1016c0007f2800f297802b2808bf3e4600f0a180bb
:1016d0002c230af119029bb2834200f0be8012f85b
:1016e000013f002bf7d1a0f141039bb2192b40f22f
:1016f000b680a0f161039bb2192b00f2b680029b69
:1017000043f001030293203880b2019b86e0ab4690
:101710000023abf800300623bae000262e2ba8d118
:10172000a4e7a345c5d047f00307ffb25e46b6e77e
:10173000009b0b2b51d0a34500f0b98047f0030765
:10174000ffb240f2b48099f82430e52b4ed0009bd4
:10175000082b00f08c80029a02f00c030c2b03d0b3
:1017600002f00303032b02d147f00207ffb217f088
:10177000020f0dd1029b13f0010f1cbf47f01007a1
:10178000ffb2029b13f0040f1cbf47f00807ffb223
:1017900089f82f70484601f017fd99f82f2003466d
:1017a000002869d112f0040f72d199f8063013f0b5
:1017b000100f77d0039800f14001d9f81430c3f32b
:1017c0000803194406f038ffc9f80800cdf8148062
:1017d000d9f80030dd680024dce647f00307ffb2eb
:1017e00099f82430e52bb6d10b230093052389f813
:1017f0002430ace747f00206f6b240f2b51106f02d
:10180000ebf810f0800f10d000f07f002d4b185c2b
:1018100008bb46f00307ffb2019b5f205a1c0192f0
:101820004b4483f824005e4639e7ff28f0d9009b3b
:10183000013b019a9a4207d2019a531c4a44010a79
:1018400082f824103746e9e747f00307ffb25e4607
:10185000009b019323e7374635e73e46d9e7029bd5
:1018600043f002030293019bd8e7019bd6e7029b5a
:101870009b00dbb202936ee7042b09d112f0200f1c
:101880000ad012f0040fa1d0802389f82f30002352
:10189000184607b0bde8f08f02f00402002a08bf26
:1018a0000523f5e70523f3e7009b0b2b95d0029b5f
:1018b0009b00dbb2029326460b230093082301937f
:0c18c000ede600bf0c6a0900007809008a
:020000040000fa
:020000040009f1
:1018cc002de9f04f85b00e46154600230b6005f050
:1018dc0017fd071ec0f21b81a34b53f82740002ca9
:1018ec0000f01a81346005f0fe05237873b160783e
:1018fc0007f0d6f910f0010f08d1002d00f0088187
:10190c0000f00405002d18bf0a2501e10023237007
:10191c00964b13f81700607007f0a8f810f001064a
:10192c0040f0fc801db110f0040f40f0f9808f4b9b
:10193c0003eb47077f780021204603f0c1fe022805
:10194c0001d02dd897b3042f00f20c8104f2062598
:10195c0004f24629e846284606f0d0ff48f8040b66
:10196c0010354d45f7d13fb17d1e0deb85050df1c1
:10197c0010084ff003090be03d46f6e7204603f054
:10198c009ffe6fb9012801d810e04846a84507d042
:10199c0055f8041b0029f1d1002ff6d00d25b7e026
:1019ac00042800f0bf80012800f2be8094f84c207f
:1019bc0094f84b3043ea02231bb2b3f5007f40f09e
:1019cc00b58094f8575094f8563053ea052504d155
:1019dc0004f1640006f092ff0546d4f834902562b9
:1019ec0094f85070a7707b1edbb2012b00f2a08024
:1019fc0094f84d801ffa88f36381002b00f09a80d5
:101a0c0008f1ff3313ea080f40f0968094f8523037
:101a1c0094f851a04aea032a0ffa8afa1ffa8afbb1
:101a2c00a4f808b01bf00f0f40f0888094f85430e5
:101a3c0094f8530050ea032003d104f1600006f03f
:101a4c005dff94f84f2094f84e3053ea022277d081
:101a5c0005fb07fc02eb1b136344984272d3c01abc
:101a6c00b0fbf8f140456fd34148814200f28880c9
:101a7c004ff6f570814288bf4ff0030800f2828068
:101a8c0040f6f570814288bf4ff002087dd88f1c5c
:101a9c00e761c4f824904a44a2624b442363bbf12f
:101aac00000f5bd06244e2624ff0010807eb470283
:101abc0007f0010303eb520303f2ff13b5eb532fb3
:101acc004ad34ff0ff33636123618023237184f881
:101adc000080284a138801339bb21380e380264b85
:101aec00e3600023a361254b1b689c420bd0354659
:101afc000ee0bbf1000f2dd06244e262b8f1020f90
:101b0c00d4d17b00d8e71d4b00221a60efe70b25e0
:101b1c00284605b0bde8f08f0c25f9e70325f7e75b
:101b2c000a25f5e70125f3e70d25f1e70d25efe78c
:101b3c000d25ede70d25ebe70d25e9e70d25e7e78d
:101b4c000d25e5e70d25e3e70d25e1e70d25dfe79d
:101b5c000d25dde70d25dbe70d25d9e70d25d7e7ad
:101b6c000d25d5e70d25d3e7ac340020143b002020
:101b7c00f5ffff0f183b0020ac320020983a0020f4
:101b8c004ff00008b8f1000fead08f1ce761c4f8e1
:101b9c0024904a44a2624b442363b8f1030fa8d1aa
:101bac0094f86b2094f86a3043ea02231ffa8afafd
:101bbc005aea0303cad104f16c0006f09ffee062fe
:101bcc00bb0003f2ff13b5eb532fc1d34ff0ff3320
:101bdc00636123618023237194f8712094f8703031
:101bec0043ea02231bb2012b7ff471af09f101010f
:101bfc00204606f0b9f800287ff469af0023237162
:101c0c0094f83f2294f83e3243ea02231bb20f4a67
:101c1c0093427ff45caf04f1400006f06ffe0c4b76
:101c2c0098427ff454af04f5097006f067fe094b37
:101c3c0098427ff44caf04f50a7006f05ffe6061c9
:101c4c0004f50b7006f05afe206140e755aaffff21
:081c5c005252614172724161b4
:020000040000fa
:020000040009f1
:101c6400343a00201c00000000000000c0370020af
:101c74009800000000000000163b00200200000055
:101c8400000000001a3b00200100000000000000da
:101c9400ac3400200400000000000000983a00204a
:101ca4001000000000000000183b002002000000ab
:101cb40000000000ac320020000200000000000020
:101cc400f03a002008000000000000001b3b002048
:101cd4000100000000000000082c002008000000a3
:101ce40000000000a83a00201000000000000000de
:101cf400b03600201001000000000000b83a0020b7
:101d040010000000000000008839002008000000d6
:101d1400000000001c3b0020010000000000000047
:101d2400143b0020020000000000000000200020fe
:101d34000008000000000000b03400200002000091
:101d440000000000c8390020280000000000000046
:101d5400503a00201c000000000000006c3a0020f3
:101d64001800000001000000c8390020503a00208b
:101d7400d83a002000000000b03400200000000029
:101d8400843a00201400000001000000a08609002d
:101d9400a4860900a8860900b0860900b486090053
:101da400903900203800000000000000602e002060
:101db4004002000000000000102c0020500200002f
:101dc400000000001d3b0020010000000000000096
:101dd400f03900202400000000000000c83a002070
:101de400100000000000000000000020002000009f
:101df40000000000003b0020040000000000000080
:101e0400d83a00200c00000000000000e43a002052
:101e14000c00000000000000043b0020040000004f
:101e240000000000383900205000000000000000cd
:101e340058380020780000000100000068380020b5
:101e44006038002068380020000000000000000016
:101e54002500000008280020000400000000000005
:101e6400000000000000000000000000000000006e
:101e74000000000000000000000000009d8c09002c
:101e8400000000000000000000000000000000004e
:101e9400f3710900000000000000000000000000d1
:101ea400000000000000000000000000000000002e
:101eb40000000000002800200804000000000000ca
:101ec400143a00202000000001000000010000007e
:101ed40003000000000000000000000000000000fb
:101ee4000000000000000000f83a0020f83a00204a
:101ef4000800000000000000083b0020040000006f
:101f040000000000a03000200c02000000000000cf
:101f1400d03800206800000001000000010000002b
:101f240003000000000000000000000000000000aa
:101f34000000000000000000cd7009000000000057
:101f44000000000000000000a38c0900f7780900dd
:101f5400000000000000000000000000000000007d
:101f6400000000000000000000000000000000006d
:101f7400000000000000000000000000000000005d
:101f8400000000000c3b00200400000000000000e2
:101f9400103b0020040000000000000000000000ce
:101fa4000000000022222222222222222222222295
:020000040000fa
:020000040009f1
:101fb4002de9f04f9db004460d4617464c220021f2
:101fc40009a806f0cefd0994e4e0013509a805f05e
:101fd40091fedfe0a97803354ff0010aebe0a97820
:101fe40003354ff0020ae6e0a1f13003dbb2092b1e
:101ff40088bf002600f2e680002606eb860601eb89
:102004004606303e15f8011ba1f13003dbb2092b63
:10201400f3d9d7e057f8044b2178002900f0248144
:102024002346c4f1010000eb030813f8012f002a32
:10203400f9d11af0020f00f0328109a805f05afe16
:1020440014f8011f0029f8d108f10104464540f2b3
:10205400a1804ff0200810e09946594609a805f0e0
:1020640049fe09f101034e45f6d1aaeb0808b04434
:1020740021780029e1d1e7e71c46414609a805f08b
:1020840039fe631ca642f7d184e057f8041bc9b299
:1020940009a805f02ffe7de009a805f02bfe79e0e4
:1020a4001af0040f07d00a2057f8042b442b08d049
:1020b4000ce01020f8e70a20442b40f0d28057f8b7
:1020c400042b002abcbf52424af0080a78290cbfec
:1020d4004ff0270b4ff0070b0df10408c4464ff0e7
:1020e400000e814600e0a646b2fbf0f100fb11238e
:1020f400dbb2092b84bf5b44dbb20ef10104303345
:102104000cf8013b914504d80a46202cebd14ff042
:102114001f0e1af0080f06d01cab1c442d2304f824
:102124006c3c0ef102040af00103002b14bf4ff0c3
:1021340030094ff020091af0020f04d0a2461cab5c
:102144001c446d3c11e004f1010ab44201d3f6e7ea
:102154009a46494609a805f0cdfd0af10103564502
:10216400f6d106f1010aeae75c46a3461bf8011919
:1021740009a805f0bffda045f6d10af101045645b2
:1021840001d807e01c46494609a805f0b3fd631cc5
:10219400a642f7d12978002900f0938025297ff4fd
:1021a40014af697830293ff415af2d293ff417afe8
:1021b40002354ff0000a2a297ff416af57f8046b52
:1021c40015f8011b01f0df034c2b04bf4af0040a8d
:1021d40015f8011b002974d0a1f16103dbb2192b9e
:1021e4009abfa1f12003dbb20b46a3f14202162ae7
:1021f4003ff652af01a050f822f000bf812209003f
:102204008f200900a52009009d2009009d200900b8
:102214009d2009009d2009009d2009009d200900a2
:102224009d2009009d2009009d2009009d20090092
:10223400932209009d2009009d2009009d2009008a
:10224400192009009d200900a52009009d200900ee
:102254009d2009005d2209001af0040f7ff429afc4
:10226400102057f8042b31e71af0020f1fd04ff05b
:102274000008e9e657f8042b022027e71af0040fb8
:10228400f8d1022018e757f8042b08201ee71af0ab
:10229400040ff8d10820e4e72178d046cde608f110
:1022a400010a4645f8d9d1464ff0200bd5e64ff048
:1022b4000108002e3ff4c8ae4ff000084ff0010aa9
:1022c400f1e709a805f072fd1db0bde8f08f00bf6d
:020000040000fa
:020000040009f1
:1022d4002de9f04fadb00027dff8e4a203910646e4
:1022e4001546b8464ff0ff3903990b78002b00f0e0
:1022f400f9800cabcde907890a938023cdf82480bb
:102304000b9300240b5d0bb1252b26d134b122464f
:10231400304605f085fd039b23440393039b1a7801
:10232400252a40f0d78003f1010bcdf80cb00398b7
:1023340003782b2b1ad025d8202b1bd0232b1dd070
:102344002a2b27d005f0b1fb0990039b1a78303a69
:10235400092a2ed801330393f7e70134d2e7079b08
:1023640043f00103013007930390e0e7079b43f038
:102374000403f7e7079b43f00803f3e7079b43f0e5
:102384001003efe72d2bead0302bd9d1079b43f074
:102394000203e7e72b681a1d1b682a600130002b33
:1023a4000390099305da079a5b4282f001020792cf
:1023b4000993079bda0744bf23f002030793039ba7
:1023c4001a782e2a0dd1581ccdf8208003905a7803
:1023d4002a2a25d1023303932b681a1d1b682a600d
:1023e400089303a805f08efd039b0190187806f06e
:1023f400a4fb6928019979d032dc632800f0c680f7
:1024040019dc252800f0d080612853d025238df8cd
:102414001030cdf80cb0cdf81c80cde90898c0e0a0
:1024240005f043fb0890039b1a78303a092ad8d860
:1024340001330393f7e7642858d06728e6dc2a467b
:1024440004a805f0cfff002800f09c80039b5a1cd1
:1024540003921b7804aa07a93046fef71ffc38e054
:10246400702873d015dc6e2800f087806f28cdd1da
:102474002b46002204a803f058ff002800f08280b5
:10248400039b04aa013307a93046039304f0a6fc76
:102494001fe075283ad0782848d07328b6d180290f
:1024a40070d1039b2a6801330393131d2b601268b8
:1024b40000235be02a4604a805f094ff002861d0bd
:1024c400039b5a1c03921b7804aa07a93046fef703
:1024d40099f904443c44a7426edd384b4f221a60fc
:1024e4004ff0ff3738462db0bde8f08f2b46012260
:1024f40004a803f01aff002844d0039b04aa013364
:1025040007a93046039303f06bfee2e72b46002253
:1025140004a803f00aff002834d0039b04aa013363
:1025240007a93046039305f013f9d2e72b4600229e
:1025340004a803f0fafe28b3039b5a1c03921b78e9
:1025440004aa07a9304602f076fcc2e72b46002213
:10255400f02104a803f0e9fea0b1039b0133039327
:10256400dde90423134306d10023524607a930466c
:1025740005f0c2f8ade77823e2e72b463a1904a840
:1025840004f000fb039b01330393a3e78029f9d1f3
:10259400039b013303932b681a1d1b682a608df873
:1025a4001030012304aae1e78029ebd1039b8df8c5
:1025b400100001330393f4e7274695e60c3b002013
:0425c400f287090091
:020000040000fa
:020000040009f1
:1025c8002de9f047089e04468846002b40f0858098
:1025d8008a42154648d9b2fa82f24ab1c2f12007b6
:1025e80001fa02f320fa07f7954047ea03089440f6
:1025f8004fea154e230cb8fbfef71ffa85fc0efbbd
:10260800178843ea084307fb0cf1994209d9eb18ec
:1026180007f1ff3080f0e380994240f2e080023f0a
:102628002b445b1aa4b2b3fbfef00efb103344ea52
:10263800034400fb0cfca44509d92c1900f1ff3315
:1026480080f0cb80a44540f2c88002382c4440ea90
:102658000740a4eb0c0400271eb1d4400023c6e9b0
:1026680000433946bde8f087002a53d0b2fa82f217
:10267800002a40f0b680491b4fea154e1ffa85f82c
:102688000127b1fbfefc230c0efb1c1143ea01439e
:1026980008fb0cf1994207d9eb180cf1ff3002d274
:1026a800994200f2ec808446591aa3b2b1fbfef0bd
:1026b8000efb101443ea044408fb00f8a04507d9b0
:1026c8002c1900f1ff3302d2a04500f2dc80184635
:1026d800a4eb080440ea0c40bee78b4208d9002e60
:1026e80078d00027c6e9000138463946bde8f087aa
:1026f800b3fa83f77fb98b4202d3824200f2bd80de
:10270800841a61eb030301209846002ea9d0c6e97c
:102718000048a6e7ffdec7f12005bb4022fa05fc0a
:102728004cea030c01fa07f420fa05f821fa05f33c
:102738004fea1c4e48ea0404b3fbfef9210c0efbd9
:1027480019331ffa8cf841ea034309fb08fa9a4542
:1027580002fa07f200fa07f10bd91ceb030309f19f
:10276800ff3080f088809a4540f28580a9f10209ff
:102778006344a3eb0a03a4b2b3fbfef00efb1033d1
:1027880044ea034400fb08f8a04508d91ceb0404fc
:1027980000f1ff336bd2a04569d90238644440ea9e
:1027a8000940a4eb0804a0fb02894c45c6464b46e9
:1027b80054d351d0002e69d0b1eb0e0264eb030460
:1027c80004fa05f522fa07f3fc401d43c6e9005454
:1027d800002746e73746304643e7184637e70746b7
:1027e8001fe7c2f1200320fa03f7954001fa02f02f
:1027f80021fa03f34fea154e3843010cb3fbfef7f9
:102808001ffa85f80efb173341ea034107fb08f36b
:102818008b4204fa02f407d9691807f1ff3c28d261
:102828008b4226d9023f2944cb1a81b2b3fbfef072
:102838000efb103341ea034100fb08f38b4207d932
:10284800691800f1ff3c10d28b420ed90238294496
:10285800c91a40ea074714e74145abd2b8eb020e64
:1028680069eb0c0201381346a4e76046f0e7184606
:1028780095e76746d8e781467be7384645e7acf1f8
:10288800020c2b4410e702382c4421e73746e8e6cf
:020000040000fa
:020000040009f1
:102898002de9f04f8bb090f82f3013f0a00f40f0d7
:1028a80009810568eb681a8842b34ff0000909f1fd
:1028b800010933f8022f002af9d1044600f1240354
:1028c8001e4601930c22194607a806f059f89df8f0
:1028d800273013f0010f00f08a80402384f82f304e
:1028e8000b2207a9304606f04bf84ff00108434683
:1028f800a3466ff0220aaaeb040a03e04ff000098e
:10290800dbe743460df11b06072200e00b4603f008
:102918000f0000f13001392988bf00f13701013a71
:1029280006f8011919090f2bf0d87e210aab1344b8
:1029380003f8141cbab194f82430202b15d004f1f4
:10294800240104f1230010440aeb0103814203d05f
:1029580011f8016f202ef7d12433234420266ff07d
:102968002300001b09e01346f6e70023f4e731468d
:1029780003f8011bc118072907d8072af7d80aa99d
:10298800114411f8141c0132f2e7584600f018fc03
:10299800074618bb08f10108b8f1640f4dd0ee687e
:1029a8000b2207a9019805f0ebffb8f1050fa8d98c
:1029b800b01e434630f8022f002aa3d0102102f09f
:1029c800010606eb4303520813f4803f1cbf83f44f
:1029d800883383f021030139f1d1ebe7b8f1640fb3
:1029e8006dd0042867d19df8273084f82f309df8e2
:1029f800273013f0020f00f0818009f10c09504bc9
:102a0800a3fb09239e08711c204604f0cafe074652
:102a1800002850d1b9f10c0f77d96169a1eb4611a3
:102a2800204603f083fb0746002844d1019805f0af
:102a38004ffe02900023039318e007273be060460f
:102a480047e04ff6ff72934202d038f810300bb9c6
:102a58004af0400a81f800a00123eb7000212046cb
:102a680003f02cf9074630bb013e4ed0e1692846f9
:102a780005f07cf90746f0b9d5f80c80216a5ffab1
:102a880086fa029b4b734ff00f03cb724ff0000393
:102a98000b738b76cb760af1ff3000eb400300eb2b
:102aa8008300284a02f10d0e039b4ff6ff774ff083
:102ab800ff0911e0062738460bb0bde8f08f07275d
:102ac800f9e792f800c001eb0c0b01f80c908bf8b9
:102ad800019001329645b4d0bb42f2d000f1010c0e
:102ae80038f81030107801eb000b0b54180a8bf8eb
:102af8000100002ba3d160463b46eae701212046ae
:102b080004f04ffe07460028d5d1e169284605f0b4
:102b18002df907460028ced120220021206a06f090
:102b28001ef80b220199206a05f02aff226a94f800
:102b38002f3003f0180313730123eb70bbe700bfba
:082b48004fecc44e388a09006d
:020000040000fa
:020000040009f1
:102b50002de9f04391b00191002800f095800446e2
:102b6000154602f03f073a4602a901a8fef7aefe5d
:102b7000064628b100232360304611b0bde8f0833b
:102b8000029b0393019903a8fef7cafc03460028a1
:102b900040f09d809df93b30002bc0f2868037f0dd
:102ba000010314bf0121002103a804f081fb0346a7
:102bb00015f01c0f00f08f8048b99df8123013f00b
:102bc000110f6ed115f0040f0fd00826d2e7042b99
:102bd0007bd16f4b1b680bb11226cbe703a8fff725
:102be0005bfe00285bd147f0080717f0080f00f0e4
:102bf000848005f072fc054601460b980e3005f006
:102c000013ff29460b98163005f00eff029dddf8e4
:102c10002c804146284605f00ffd8146202388f888
:102c20000b3000220b99284605f000fe00210b987e
:102c30001c3005f0f9fe029b0122da70b9f1000f99
:102c400059d0029b5d6b0022494603a803f0a6fc05
:102c500008b106468ee72946029805f08bf809f17f
:102c6000ff33029a1361002845d0064682e700eb45
:102c70005522226201234146787805f0f1fa0028b6
:102c80003ff47aaf012675e7092675e7022671e75a
:102c90000226e1616ee704266ce707266ae706462e
:102ca00068e7072666e71e4664e7062662e7ed1b2f
:102cb000af425dd2204602f0d1fe01460128e7d99d
:102cc000b0f1ff3ff3d10126e3e71e4652e715f0ce
:102cd0001c0f7ff47caf002be5d19df8123013f070
:102ce000100fd8d115f0020f02d013f0010fd4d17c
:102cf00015f0080f01d047f04007029b5b6b636241
:102d00000b9ba36237f0010314bf0121002103a82c
:102d100004f02cf820610028b8d0029dddf82c804a
:102d20004146284605f088fca06008f11c0005f02b
:102d3000ebfde0602560eb88a380277500216175bd
:102d40002162a16104f130084ff40072404605f0a1
:102d50000aff17f0200f3ff40fafe568002d3ff496
:102d60000bafa561029b5f897f02a168bd42a1d81c
:102d7000e161c5f30803002b3ff4feae029f384625
:102d800005f0cdfd00287ff472af0226f2e600bf09
:042d9000983a00204d
:020000040000fa
:020000040009f1
:102d940030b591ea030f00f18280841a71eb030cc1
:102da40005d2121953eb0c03001b71eb0c0140f21a
:102db400000ccff6e07c1cea430f52d0bceb410f71
:102dc4005fd90c0da4eb135e5ff0010c6cf31f5183
:102dd4006cf31f53def1200c2ad303fa0cf54019cf
:102de40041f1000122fa0ef5401923fa0ef569416a
:102df40012fa0cf2cd0208d349085fea30005fea08
:102e0400320228bf42f001020134013c5fea500c57
:102e140072f1004250f1000051eb04514ff40013e1
:102e240013eb410f38bf30bd090d0905002030bd3b
:102e3400bef1200ebef1200f1ed223fa0ef540196a
:102e440041f10001cef1200c124218bf012203fa15
:102e54000cf52a43cee711ea5c0f04bf00200021e1
:102e640030bd1cea410f04bf01f00041002030bd19
:102e740001f00041002030bd21f4801101eb045128
:102e840030bd004218bf41f00101bceb410f08bf47
:102e940030bd4ff0fe4141f47801002030bd83f095
:102ea4000043841a71eb030e07d28ef0004e001b10
:102eb40071eb0e01121953eb0e0340f2000ccff626
:102ec400e07c1cea430fc6d0bceb410f72d90c0d59
:102ed400a4eb135ec90241ea5051c00241f0004123
:102ee400db0243ea5253d20243f00043def1200cea
:102ef40041d312fa0cf522fa0ef203fa0cf542ea67
:102f0400050218bf42f0010223fa0ef3801a994118
:102f1400e30ac4f30a0411f0404f03d418d0013c6f
:102f240040004941013c23d44205c00a40ea4150d3
:102f3400c90a51eac3715fea500c72f1004250f1c0
:102f4400000051eb045130bd01002fd00020203c83
:102f54000029f9d0b1fa81fcdcf1200e11fa0cf150
:102f640030fa0ef510fa0cf02943a4eb0c04d9e75f
:102f74000020d90730bdaef1200ebef1200f0dd2d6
:102f8400cef1200c03fa0cf533fa0ef32a4318bfe2
:102f940043f00103c01a61f10001b9e721f00041d7
:102fa400c00a40ea4150c90a01eb045130bd002077
:102fb400002130bd004218bf41f00101bceb410fbc
:102fc4007ff467afbceb430f3ff463af30bd00bf8a
:020000040000fa
:020000040009f1
:102fd40061001a03e0001703f8000703ff00010073
:102fe40078010001300132010601390110014a0162
:102ff4002e017901060180014d0043028101820105
:1030040082018401840186018701870189018a0183
:103014008b018b018d018e018f0190019101910132
:1030240093019401f60196019701980198013d02dc
:103034009b019c019d0120029f01a001a001a2010e
:10304400a201a401a401a601a701a701a901aa0143
:10305400ab01ac01ac01ae01af01af01b101b201f2
:10306400b301b301b501b501b701b801b801ba01a3
:10307400bb01bc01bc01be01f701c001c101c20119
:10308400c301c401c501c401c701c801c701ca0104
:10309400cb01ca01cd011001dd0101008e01de0169
:1030a4001201f3010300f101f401f401f801280114
:1030b400220212013a020900652c3b023b023d0246
:1030c400662c3f0240024102410246020a015302b9
:1030d400400081018601550289018a0158028f014d
:1030e4005a0290015c025d025e025f02930161027a
:1030f4006202940164026502660267029701960106
:103104006a02622c6c026d026e029c0170027102f2
:103114009d01730274029f0176027702780279029c
:103124007a027b027c02642c7e027f02a601810269
:103134008202a9018402850286028702ae0144024a
:10314400b101b20145028d028e028f0290029102fa
:10315400b7017b030300fd03fe03ff03ac0304007c
:103164008603880389038a03b1031103c20302009f
:10317400a303a303c4030803cc0303008c038e033b
:103184008f03d8031801f2030a00f903f303f403cd
:10319400f503f603f703f703f903fa03fa0330041c
:1031a400200350041007600422018a043601c1047c
:1031b4000e01cf040100c004d004440161052604bb
:0431c400000000bf48
:020000040000fa
:020000040009f1
:1031c8002de9f04f87b00446d0f800b0002102f096
:1031d800adff0246002840f0c0804ff0ff33236364
:1031e8004ff0ff08c1461f460ae027634ff0ff096a
:1031f8000021204602f062fd0246002840f0ad8022
:10320800e169584604f0b2fd0246002840f0a58066
:10321800256a2e78002e00f09f80eb7a03f03f029b
:10322800a271e52ee1d013f0080f15d00f2adcd1da
:1032380094f82f3013f0400fdad116f0400f30d049
:1032480095f80d8006f0bf06636923636b7b4345e1
:103258002dd04ff0ff09cbe70f2ae9d0b9f1000fc5
:1032680004d1284605f034fa40457ad094f82f2046
:1032780012f0010211d1691c04f1250015f80b3b6d
:1032880094f824609b1b43b911f8013b10f8016bbb
:103298009b1b8d42f7d1002b5fd027634ff0ff09ae
:1032a800a6e7b14518bf4ff0ff09a1d1cee7ea7ee6
:1032b800ab7e53ea02235bd1dbf80c0005902b7838
:1032c80003f03f03013b03eb430203eb8203dff808
:1032d800c4a00121cdf80480cdf808b00496984622
:1032e8000394044606e04ff6ff739e4249d1284beb
:1032f8009a451ad01af8013bea185278ee5c46ea69
:1033080002260029efd0b8f1ff0f2cd8304602f082
:103318005bfe834608f1010934f8180002f054fef8
:10332800834528d13146c846e1e7ddf808b0049e58
:103338004246ddf80480039c2b7813f0400f04d03c
:1033480019b1059b33f812301bb9013e5ffa86f9b3
:103358004ee74ff0ff094be70422104607b0bde8df
:10336800f08f4a46f9e7ddf80480ddf808b0039ce1
:103378004ff0ff093ce7ddf80480ddf808b0039c56
:10338800f6e7ddf80480ddf808b0039cf0e700bf3d
:08339800458a0900388a09008a
:020000040000fa
:020000040009f1
:1033a0000a23203d3d3d3d3d3d3d3d3d3d0a232021
:1033b0006e766d5f66617420666f722073616d5ffb
:1033c0006535345f7870726f0a23203d3d3d3d3d89
:1033d0003d3d3d3d3d0000002f6d6e742f6d7944e5
:1033e00072697665310000002f6465762f6e766d08
:1033f000613100000a5359535f46535f4d6f756e3c
:1034000074207375636365656465642061667465c3
:103410007220256c6420617474656d707473202d46
:103420002d206f70656e696e672066696c65206619
:103430006f72207772697465000000002f6d6e74e2
:103440002f6d794472697665312f46494c452e546b
:10345000585400000a5359535f46535f46696c65e0
:103460004f70656e206661696c6564202d2d20713a
:1034700075697474696e67000a5359535f46535fe8
:1034800046696c654f70656e20737563636565642e
:103490006564202d2d2077726974696e6720746fc2
:1034a0002066696c650000000a5359535f46535ffc
:1034b00046696c655772697465206661696c6564fc
:1034c000202d2d207175697474696e6700000000ed
:1034d0000a5359535f46535f46696c655772697466
:1034e0006520737563636565646564202d2d2063b5
:1034f0006c6f73696e672066696c6520616e64200d
:1035000072656164696e672073746174757300001d
:103510000a5359535f46535f46696c65537461742f
:10352000206661696c6564202d2d20717569747445
:10353000696e67000a5359535f46535f46696c656d
:103540005374617420737563636565646564202dcd
:103550002d2066696c6520636f6e7461696e7320df
:10356000256c642062797465730a446f6e65210a64
:04357000000000bf98
:020000040000fa
:020000040009f1
:103574002de9f04f87b00446884616469946002345
:10358400c9f80030039005a904f06cfa01900028f2
:1035940045d1637d0193002b41d1237d13f0020fac
:1035a40000f0c680a369f34200d3de43002e00f08e
:1035b400ba8004f13003029390e0e169039801f0ca
:1035c400ccfc002800f0af8001282cd0b0f1ff3fe4
:1035d4002dd0e061a36803b9a06094f91430002be6
:1035e40029dbddf814b0e169584605f096f9824606
:1035f40090b3ba44b6f5007f45d3750abbf80a30d8
:103604007a199a4288bfdd1b2b46524641469bf8e5
:10361400010004f07dfd18b3012363750193019843
:1036240007b0bde8f08f022363750193f7e7012328
:1036340063750193f3e70123226a029905984078a0
:1036440004f066fd20b9237d03f07f032375c8e7ea
:10365400012363750193e2e7022363750193dee7b7
:10366400216aa1eb0a01a94201d36d0226e04ff4bd
:10367400007208eb4121029805f084f9237d03f0e0
:103684007f032375f1e7236a534503d0a269e368f6
:103694009a423bd3c4f820a0a069c0f30800c0f547
:1036a4000075b54228bf35462a464146029b184458
:1036b40005f068f9237d63f07f032375d9f80030a2
:1036c4002b44c9f80030a844a3692b44a361e268e1
:1036d400934238bf1346e360761b24d0a369c3f337
:1036e4000802002ad8d1059a5789013f17ea5327bf
:1036f4007ff473af002b7ff460afa06800287ff4e1
:1037040063af0021039801f028fc5ae701235246d5
:1037140002999bf8010004f0a1fd0028bad001230e
:10372400637501937be7237d43f04003237576e7bc
:063734000723019373e777
:020000040000fa
:020000040009f1
:02373a007047d6
:020000040000fa
:020000040009f1
:10373c002de9f04391ea030e0ef0004e40f2000723
:10374c00cff6e07717ea41051ebfbd4217ea4305e5
:10375c00bd4200f09f807f0d17ea135623ea4753b2
:10376c0043f4801317ea115521ea475141f48011b3
:10377c00ad1b05f2fd354fead31c1cf1010c4ff0cb
:10378c000047b7fbfcf77f01a2fb079c0024e3fb7f
:10379c0007c4d9f100096ceb4c0ca0fb07620020ac
:1037ac00e1fb072000275feac628e0fb0987760dbe
:1037bc0046eac226520df61900277a41e0fb0c624c
:1037cc005feac823e2fb09375fea585848eac62883
:1037dc00760d18eb070800214e41e2fb0c8602eb3c
:1037ec00c020da02e6fb09215b0d43eac8235fea3d
:1037fc0058585b18002758eb0708e6fb0c38d10229
:10380c00e8fb0917520d42eac3225b0dd2190027bf
:10381c007b41e8fb0c2308ebc6265feac128e3fbdf
:10382c000987490d41eac221520dc91942f1000222
:10383c00e3fb0c12470019eb08095ceb010c72eb73
:10384c00040453ebc62047eb56530026b3f5000f88
:10385c007641ad190236d6f1200910fa09f4f04080
:10386c0013fa09f21043f340e40f001943f100037b
:10387c00b3f5001f24bf5b08013540f2fe77bd4253
:10388c0004d24eea05511944bde8f0832d4224d5eb
:10389c00714626e0004218bf41f00101124218bfe8
:1038ac0043f00103b7eb410f2cbfb7eb430f1be009
:1038bc00b7eb410f04bfb7eb430f15e017ea410f0d
:1038cc0004bf17ea430f0fe017ea410fe0d017eae5
:1038dc00430f02d0b7eb430fdad04ef0fe4141f468
:1038ec0070010020bde8f08340f20001c7f6f871ca
:0438fc00f7e700bf2b
:020000040000fa
:020000040009f1
:103900002de9f04f87b0039003a804f0b5f9002823
:1039100003da002007b0bde8f08f039b1b095d1e92
:10392000202d0fd9023b5e4ab3f5007f35bf02eb75
:10393000d30302ebd31313f8045c13f8045c34bf15
:10394000013511350123a5f12001c5f1200203fa4b
:1039500001f923fa02f203fa05f8d8f1000849ea5e
:10396000020969eb4909cde90089dff84081dff8f8
:1039700030914746d8e90023009902ea010a0199eb
:1039800003ea010b5aea0b0342d1039b05a810334b
:10399000059304f0daff18b9424b0c221a60b9e71c
:1039a000d8f80852a84206d0059b103b0593012386
:1039b00000f110058360059bea18012143f0010323
:1039c000b5f1080442f8083c42f8041cc7f8082284
:1039d00045f8043c9dd0204604f0e4fb88b155f83e
:1039e000083c55f8041c23f00103e31a5a6822f03e
:1039f00001020a445a6055f8041c21f0010162508a
:103a00001c462046039904f0fdfb04f1080081e701
:103a10005446254bbaf1000f34d1cbf1000000ea37
:103a20000b00434309ebd36393f83c6020363046e8
:103a300004f042fe731c57f8334007ebc303083b06
:103a40009c4297d0272e26dd0235ae4201dc3f2e68
:103a500021d16268039922f00102551a284604f028
:103a600037fa864217d1e068a6686318d8609e606e
:103a700083609868c36041f0010060505d60a550ac
:103a80006060bee7caf100002040434309ebd36306
:103a900093f83c60cbe73146204603f003feb0e7e5
:103aa000ec7509000c3b002029e66b07a0300020d4
:020000040000fa
:020000040009f1
:103ab000002840f0be8030b58bb00c46634b93f9c4
:103ac0000030022b08d1614b93f89530012b4dd07b
:103ad0004ff0ff300bb030bd5c4b1b6cdb682bb183
:103ae0005a4a908e9847022840f0ad80574b1b6c85
:103af0001b6843b1554d0b21a88e9847a863b0f1c0
:103b0000ff3f00f0a08028220021684604f0ccff8f
:103b10004e4b1a6cd2696946986b9047002800f0aa
:103b200092804a4b009ada67019ac3f88020039a80
:103b3000c3f884200499c3f888109a62069ac3f8df
:103b40008c200799c3f89010da62182283f8682055
:103b5000029ada66059a1a67089a5a6703f17c0294
:103b60009a67099ada6002221a70ace7374b002292
:103b700083f89520db79002b4dd1344b93f86030de
:103b800013b114f0080f4dd1304b586e002853d0ac
:103b90009d6dab7800225bb105f11003002201326c
:103ba000904249d01d46103313f80e1c0029f6d15f
:103bb0000123ab7000232b706c706b6014f0080f46
:103bc00002d0224b0121d971204b93f860100131b2
:103bd00083f86010198e42ea0142aa601b8e0133fd
:103be0009bb24ff6ff72934208bf0123174a138618
:103bf000ab68b3f1ff3f08d092f83c302bb1136ca7
:103c00009b6913b11249906b9847104b012283f8be
:103c10009520a8685ee70d4b012283f895204ff0b0
:103c2000ff3057e7094b012283f895204ff0ff3012
:103c300050e74ff0ff307047044b012283f8952086
:103c40004ff0ff3046e74ff0ff3043e7c03700202a
:043c5000fd8b0900df
:020000040000fa
:020000040009f1
:103c54002de9f04f87b0054688461446994600235f
:103c6400c9f80030029005a903f0fcfe009000287a
:103c740040f09d806b7d0093002b40f098802b7d5d
:103c840013f00103039300f0ac80ee68ab69f61afd
:103c9400a64228bf2646002e00f0898005f1300395
:103ca40001934fe0e969029801f0d6fe58e002233f
:103cb4006b7500937be001236b75039b009376e0a7
:103cc40002236b75009372e095f91430002b01db2d
:103cd40064022ce0286aa0eb0a00a042f8d24ff458
:103ce4000072019908eb402004f04cfef0e72a6ac8
:103cf40052450cd095f91430002b5cdb012352465d
:103d040001990598407804f0a9fa002864d1c5f80f
:103d140020a0a969c1f30801c1f50074b44228bf09
:103d240034462246019b1944404604f02bfed9f840
:103d340000302344c9f80030a044ab692344ab618c
:103d4400361b34d0ab69c3f30802002ae1d1059acb
:103d54005789013f17ea532708d1002ba2d1a8683d
:103d64000128a4d9b0f1ff3fa5d0e861ddf814b073
:103d7400e969584604f0d1fd82460028a0d0ba442f
:103d8400b6f5007fb3d3740abbf80a303a199a42e5
:103d940088bfdc1b2346524641469bf8010004f0d1
:103da4005dfa002890d001236b75039b0093009863
:103db40007b0bde8f08f012301999bf8010004f0de
:103dc400a7f920b92b7d03f07f032b7596e7012318
:103dd4006b75039b0093eae701236b75039b0093c8
:083de400e5e707230093e2e785
:020000040000fa
:020000040009f1
:103dec00002800f0b78070b582b00646b1b1531e02
:103dfc00dbb2022b12d814460d4603f067fb98b1c8
:103e0c00574b00221a70574b1b78a34200f08b8043
:103e1c00534b15221a704ff0ff3099e0504b132280
:103e2c001a704ff0ff3093e04d4b03221a704ff095
:103e3c00ff308de04a4b01221a704ff0ff3087e0c3
:103e4c00474b16221a704ff0ff3081e0464b002290
:103e5c001a70464b1b78002b3dd0434b01221a7035
:103e6c003f4b14221a704ff0ff3071e03f4b002291
:103e7c009a73a36c83b198473c4b5b681b687bb10e
:103e8c003a4a507b9847364b18700d2811d0374b57
:103e9c0001229a73b8b90fe0314b17221a70ebe775
:103eac002f4b17221a70314b01229a734ff0ff30af
:103ebc0009e02e4b01229a732c4a012111702c4bd4
:103ecc0019705a600020284b01221a70003018bf5c
:103edc00012040423ce0254b5c70224a54685c60f7
:103eec0000221a73681d6b792f2b0bd053b101462e
:103efc001e4a137b0133137311f8013f2f2b01d092
:103f0c00002bf6d1194b98609df8000058739b7be1
:103f1c00012babd0124b07221a70134b01221a70d3
:103f2c004ff0ff3014e06946304604f01df90028cc
:103f3c0080d09df80430a34201d0002b80d10a4bd5
:103f4c001b78012b82d0064b07221a704ff0ff30e2
:103f5c0002b070bd024b13221a704ff0ff30704745
:103f6c001b3b0020883900201c3b0020b83a002065
:043f7c00082c0020ed
:020000040000fa
:020000040009f1
:103f80002de9f04383b004460e46814601a903f0b3
:103f90006bfd8046002859d194f81580b8f1000fc8
:103fa00054d1e368b34205d2227d02f00202002a16
:103fb00008bf1e46a3690022a261002e46d0019ac6
:103fc00057897f026bb1013b721eb2fbf7f2b3fb64
:103fd000f7f18a4205d37a421340a361f61ae569e4
:103fe00003e0a568002d35d0e56185b1be4258d803
:103ff000a3693344a361c6f30803002b70d029469c
:10400000019804f08cfc002865d000eb5625a369cc
:10401000e268934204d9e360227d42f040022275b7
:10402000c3f3080393b1226aaa420fd094f9143063
:10403000002b57db01232a4604f130010198407818
:1040400004f00ef9804600285ed12562404603b098
:10405000bde8f0830021204600f081ff05460128dd
:1040600004d0b0f1ff3f06d0a060bde74ff00208da
:1040700084f81580eae74ff0010884f81580e5e739
:104080002946484601f0eafc0546b5f1ff3f18d045
:10409000012d1bd9019bdb69ab4217d9e561b74202
:1040a000a6d2f61ba3693b44a361237d13f0020f44
:1040b000e6d02946484600f052ff05460028e4d1e4
:1040c000a5e74ff0010884f81580bfe74ff002081c
:1040d00084f81580bae74ff0020884f81580b5e738
:1040e0001d4694e7012304f130010198407804f063
:1040f00011f820b9237d03f07f0323759ae74ff071
:10410000010884f81580a1e74ff0010884f81580b4
:024110009ce72a
:020000040000fa
:020000040009f1
:024112007047f4
:020000040000fa
:020000040009f1
:104114002de9f04f87b00190894600929a4605aa8e
:10412400012103f060fe002840f0a380ddf8148034
:10413400564b984540f29f8010264ff63e42b8fbfe
:10414400f6f393421cd9760016f0ff06f7d14ff42c
:1041540000720021504604f004fdff264c4ba3fbe3
:1041640008235b090293a9f104090af5e3740af52b
:10417400fb733f25dff81cb1cdf80ca09a464de047
:104184004ff400720021504604f0ebfce6e7a8eb84
:104194000507002f53d02946204604f043fc394636
:1041a400201d04f03ffc009b04f8043cabfb0523fa
:1041b400ea1a03eb52035b09b3fbf6f206fb123176
:1041c40004f8071c910821f03f01c3eb8313eb1a99
:1041d40001330b4304f8063c04f8052c3d446a1ee5
:1041e400abfb0213d11a03eb51035b09b3fbf6f0eb
:1041f40006fb103104f8031c810821f03f01c3ebd6
:104204008313d31a01330b4304f8023c04f8010c62
:10421400544517d055b3103445450dd259f8047f91
:10422400642f03d81abf029b5f4347467b1943455b
:10423400add8ab42add2aae7ddf80ca004e0ddf8be
:104244000ca001e0ddf80ca055238af8fe31aa2366
:104254008af8ff31012300225146019803f058ffe8
:10426400003018bf012007b0bde8f08fddf80ca0c6
:10427400eae70120f7e74ff400720021504604f00a
:1042840070fcb8f13f0fdfd9082667e7f7e10700b4
:084294001f85eb5105411004e8
:020000040000fa
:020000040009f1
:10429c002de9f04f87b00392002840f0b5800f460f
:1042ac001e465b4b1c686069b0f1ff3f2ed0636a01
:1042bc001b699b680593b3f5007f0fd94fea532810
:1042cc00b8f1010f16d0524b01229a75002e00f056
:1042dc00888004f11c030493029653e0059ab2f50e
:1042ec00007f07d04ff40073b3fbf2f303fb07f727
:1042fc0003fb06f6022384f82130a3680096dd68e0
:10430c003b46039a04f11c01a847e06907b0bde8dd
:10431c00f08f4ff0020384f821306069a3684ff4ea
:10432c00006200929b681e46059a0bfb02f3394a09
:10433c000499b047029e94f92120022a06d1a36861
:10434c00db6a002bf9d020699847f4e7029642b952
:10435c006a0203992f4b03eb4a2004f0e5fa2d4a2d
:10436c001ee02b4b00229a754ff0ff30cee70296e1
:10437c00002a30d1029b5b1b02932f44039b03eb5f
:10438c0045230393b7fbf8fb08fb1b7aa8eb0a0940
:10439c004d46029b994528bf1d46a845b9d1039aa5
:1043ac00029eb1451fd24ff0020384f821306069a0
:1043bc00a36801210091d3f80c905b460499c8477f
:1043cc0094f92120022ad2d1a368db6a002bf9d000
:1043dc0020699847f4e70e4b00229a754ff0ff3096
:1043ec0094e7b346039a0a4b00219975022384f88b
:1043fc0021306069a36801210091dd685b4604f1fe
:10440c001c01a847e06981e74ff0ff307ee700bf51
:08441c006c3a00200020002092
:020000040000fa
:020000040009f1
:10442400f0b597b00190022208a901a8fdf74cfa53
:10443400044680b90b22202102a804f092fb019bc0
:104444001b781f2b3ed9002440f2b516524f87e04b
:10445400062400e00624204617b0f0bd254638e0c7
:104464000b2202a9119804f08dfa47e0042801d028
:104474000446f0e7002deed0012109a803f093f9da
:1044840004460028e7d120220021119804f069fb9a
:10449400119b0822da720b2202a9119804f072fa15
:1044a400089b0122da70089802f054f90446d2e716
:1044b4000624d0e70624cee70624cce70624cae780
:1044c4000624c8e79df80830e52b01d10624c2e78d
:1044d4000025089b099300210b9109a801f028feef
:1044e40004460028b7d1012109a800f0abf900283f
:1044f400bcd1002db4d1119be5221a70089b012276
:10450400da70089802f026f90446a4e79df808201a
:10451400e52ad1d0202ba1d116ab2b44513b002d41
:10452400d7d0691e13f80129202ad2d10d46f6e707
:10453400092cc3d8651c16aa14441a0a04f8502c72
:1045440004e0ff2bf4d80a2cbad825466c1cdbb245
:1045540016aa2a4402f8503c019a12781f2ad5d987
:1045640001a803f054ffb0f5803fa1d201f02efd65
:10457400314603f02ffa034600289bd02b283ff442
:1045840067af2e22791c92b293423ff463af11f8c5
:0c459400012f002af7d1d4e79c89090010
:020000040000fa
:020000040009f1
:1045a0002de9f84fd0f800a000238b75c369002bcc
:1045b00000f091800c460546036bb3f1ff3f2fd00e
:1045c00000263746b04640f2b51b08e004eb08036e
:1045d000020a9a75d8750223984400270236daf841
:1045e0000c30985b58b32fb900f520539bb2b3f54c
:1045f000006f22d3c8f1ff09594640ea074003f093
:10460000ebf9ff2810d9b9f1010fdfd84ff00009fd
:10461000002f18bf4ff00009a144002389f816307d
:1046200000210b462e2615e058b1b9f1000fefd04e
:1046300004eb080398750123cee70746cee7c14691
:10464000e6e74ff00009e3e76018437201311346d3
:104650000b2a0fd05a1c286ac35c202bf7d0052bdd
:1046600008bfe523092aefd10b29edd8601846725f
:104670000131e9e7631800225a72a37dbbb959b131
:10468000637a104663b104f1090208274ff0100c59
:104690006ff00706361b27e0481c21443f238b752b
:1046a0002044002383752b6a1b7b03b963722b6a3a
:1046b000db7a2372286a1c3004f026f920602a6a0b
:1046c000d17d937d43ea0123e3802a6a517e137ee4
:1046d00043ea0123a380bde8f88f67465373b018ff
:1046e00012f8013f002bdbd09bb22e2bf5d0a3f1ab
:1046f000410189b21929f1d8296a097b0f42edd00d
:044700002033ebe790
:020000040000fa
:020000040009f1
:104704002de9f04115461e469df820700c4611b166
:104714004ff0ff330b6002f09bfb0346f8b1427885
:104724009df8241011421ad0ddb1069abab1197855
:1047340002eb060c01ebc10201eb42029df81c00e6
:1047440002443f4800ebc202d2f88020944506d8c8
:10475400982202fb010292f89420012a04d0bde8b9
:10476400f081022ffbd1e0e78446982000fb01c0d2
:104774004ff0000c80f894c0006c8068002848d08a
:1047840093f800c02e48982202fb0c02926c002a77
:1047940037d04ff0980808fb0c08106ac8f8480096
:1047a400b8f832e01878000240ea0e4e10684eea7b
:1047b4000000d060536015615661069b93611777c2
:1047c4000123137200231362b8f8323001339bb211
:1047d4004ff6ff70834208bf0123a8f832300cb1b2
:1047e400d36823601648982303fb0c03db6cf3b1f6
:1047f400134b982000fb0c3cdcf850301a62ccf8c8
:1048040050200f4b982202fb0131012381f8943090
:10481400a5e7022f03d0032f08bf1746b0e7084ac5
:10482400982303fb0121012381f8943097e798230f
:1048340003fb0c0cccf84c20ccf85020e1e700bf73
:04484400c037002059
:020000040000fa
:020000040009f1
:104848002de9f04f83b00446894607684ff0ff0a08
:1048580055460426d0464ff6ff7b64e00f2a50d118
:1048680013f0400f0ad090f80da003f0bf0362695f
:104878002263427b524506d045464ee09d4218bf12
:1048880045464ad1f5e7c17e827e52ea01226fd1c0
:10489800fe680196057825f04005013d05eb4502c7
:1048a80005eb8205334901f10d0e4ff0010c009321
:1048b8006346b44603e05a455ad171450fd011f802
:1048c800012b86187678825c42ea0622002bf2d009
:1048d800ff2d4dd82cf8152013460135ede79c46e1
:1048e800009b027812f0400f08d0bcf1000f05d0f1
:1048f800ff2d3dd80022019921f81520013bddb29a
:104908000be01db903f0e4fe50452dd04ff0ff3306
:10491800236329e0454600e045460021204601f092
:10492800cdf90646f0b9e169c9b1384603f01efa77
:104938000646b8b9206a03789bb1c27a02f03f02f2
:10494800a271e52be6d02e2be6d022f02001082913
:1049580014bf00210121494580d04546dde71eb13d
:1049680000e004260023e361304603b0bde8f08f81
:084978004546d2e7388a090028
:020000040000fa
:020000040009f1
:104980002de9f047d6b00190894606460022027014
:1049900048a901a8fcf79aff0746002865d1489b63
:1049a0004993d3f818a0cdf82ca1baf1000f64d028
:1049b0004c464ff0200800252be002a949a8fff73c
:1049c000effd9df81e30002b72d00df11e012b461d
:1049d00000e013465a1c11f8010f0028f9d1991c68
:1049e000a14256d8002a46d056a90b44a3f59d7380
:1049f000a21a013c13f8010901990855a242f8d105
:104a0000541e019b2f221a55ddf82ca1baf1000f7c
:104a100043d0414649a801f08dfb002833d150997d
:104a2000489803f0a7f980bb5199489803f004fe19
:104a30004b90294649a801f07dfb40bb294649a877
:104a4000fff702ff034660b95199489803f0f4fd5f
:104a50005045b2d0294649a801f034f90346002850
:104a6000ecd0042b14bf1f460227002333703846b6
:104a700056b0bde8f0872246c2e74c46013c019b98
:104a80002f221a550be00746efe70746ede70746ea
:104a9000ebe71127e9e71127e7e7a145eed0631c13
:104aa000019a125d06f8012b1c469945f7d8dce700
:084ab000002cf0d02246a3e720
:020000040000fa
:020000040009f1
:104ab800f0b540f2ff7681ea030c16ea115e1ebfdc
:104ac800b64516ea1355b54252d021ea465141f48b
:104ad8008011a1fb024723ea465343f48013ae44f6
:104ae800a0fb03650cf0004c36197d41a1fb034780
:104af80047f10003a0fb0217f619654153f10003c3
:104b0800094218bf46f0010640f2fe74b3f5007f73
:104b180013d2aef5806ea64523d24cea03312803a2
:104b280041ea155140ea16503203450872f1004235
:104b380050f1000051eb0e51f0bdaef2ff3ea6451c
:104b48000fd24ceac321e80241ea555140ea5650d7
:104b5800f202450872f1004250f1000051eb0e518b
:104b6800f0bd1eea0e0f2dd50cf000410020f0bd5f
:104b780016ea115f04bf01f000410020004218bf8f
:104b880041f0010116ea135f04bf03f0004300225d
:104b9800124218bf43f0010306ea1354b44218bf87
:104ba800b64503d00cf000410020f0bd21f00041d3
:104bb80023f00043b1eb065f0cd8b3eb065f09d8ce
:104bc80041b13bb10cf0004141f0fe4141f47001ac
:104bd8000020f0bd40f20001c7f6f8710020f0bdda
:020000040000fa
:020000040009f1
:104be8002de9f047012940f28980c3698b4240f2e0
:104bf800878016460c4605460378022b4dd0032bba
:104c080060d0012b03d002273846bde8f08701ebbe
:104c18005108816a01eb582103f0a8f807460028db
:104c2800f2d105f1400908f1010ac8f3080814f0a7
:104c3800010f1ad019f8083003f00f0343ea0613de
:104c480009f808300123eb70a96a01eb5a212846bc
:104c580003f08cf8002855d1caf308014944c6f37b
:104c680007120a700123eb70cee709f808600123e8
:104c7800eb70a96a01eb5a21284603f077f800285f
:104c880042d1caf3080a09eb0a0119f80a3023f0dd
:104c98000f03c6f303221a43e3e7816a01eb1421e9
:104ca80003f064f807460028aed105f1400361001f
:104cb80001f4ff7158185e54c6f3072242700123ad
:104cc800eb70a1e7816a01ebd41103f04ff80746b6
:104cd800002899d126f0704605f14003a10001f49f
:104ce800fe715c18204603f00bfe00f07041314362
:104cf800204603f095fe0123eb7085e7022783e742
:0c4d0800022781e707467fe707467de7aa
:020000040000fa
:020000040009f1
:104d140030b5a7b001900091684602f0f5fa02227e
:104d24000ba901a8fcf7d0fd034610b1184627b023
:104d340030bd0b9b1993019919a8fcf7effb0346af
:104d44000028f3d19df8933013f0a00f71d1022104
:104d540019a802f0abfa03460028e7d120222199d2
:104d640003a803f00ffe342219a90ca803f00afecd
:104d740000990ca8fcf7d2fb034658b90e9a1b9b6a
:104d84009a4201d00823d1e7119a1e9b9a4203d07c
:104d94000823cbe70428c9d10ca8fdf77bfd034603
:104da4000028c3d1149c13220df1190104f10d0044
:104db40003f0e8fd9df8173013f0100f08bf43f01f
:104dc4002003e3720b9b0122da70e37a13f0100fd5
:104dd4001bd01b9a0e9b9a4217d00b9d2146284646
:104de40003f028fc0146284603f097fd014608b964
:104df40002239be7284602f0bbff0346002895d117
:104e04000b9890f861302e2b0ad019a802f0d8fa2a
:104e1400034600288ad10b9801f09cfc034685e7e1
:104e24000e9a00f1600103f0fffc0b9b0122da7083
:064e3400ebe706237ae71c
:020000040000fa
:020000040009f1
:104e3a002de9f04f89461946d9e90153d9f800807e
:104e4a00d9f80ca0002d8bb0a8bf28f00208834621
:104e5a00b8bf012518f010009646d2e90067029003
:104e6a0051d056ea07024ed0981e18f0080403944f
:104e7a00d9f8104018bf00f1ff30401b013c4ff039
:104e8a00000c049008f0020005900af804c0a1f191
:104e9a0041000690012c0add56ea070235d1002da1
:104eaa0033dc049a5019002801dd059a6abb029a7c
:104eba0062b1dee9006756ea070207d00aeb04028c
:104eca00023c02f8011c30220af80420039a1ab1a3
:104eda00013c20220af80420d9f81020cdf80080dd
:104eea00013a121b0aeb0401584601f0cafddbf82d
:104efa000430db0504d5d9f804309842b8bf184607
:104f0a000bb0bde8f08f1846afe706f00f00069a1f
:104f1a000928d4bf30305730192a04f1ff340ed88b
:104f2a0040f0200cacf1610cbcf1190f07d8cde9a7
:104f3a0008e1079303f005fedde908e1079b0af89b
:104f4a000400300940ea07704fea171c013d064683
:044f5a0067469fe720
:020000040000fa
:020000040009f1
:104f5e002de9f04107460668884659b93569002d96
:104f6e0074d0f369ab4298bf01257369002b6ad0e8
:104f7e002c4638e000f06bfd034601285ed9b0f1f7
:104f8e00ff3f60d0f26982425dd87369002b5ad020
:104f9e0008f10104a24298bf02242146384600f0cf
:104fae0056fd034601284ed0b0f1ff3f4bd038b12d
:104fbe003569012d08d9f369ab4298bf4546d7e74d
:104fce00002c45d14546d3e74546d1e72146384624
:104fde0000f03dfd034670b1012834d0b0f1ff3f23
:104fee0031d0ac422ed00134f369a342eed8012d5c
:104ffe0026d90224eae74ff0ff3221463046fff76a
:10500e00ecfd034668bbb8f1000f0ed13461726936
:10501e00f369023b9a429cbf02f1ff32726133790f
:10502e0043f00103337123460de0224641463046dc
:10503e00fff7d3fd03460028e8d012e0012302e07b
:10504e00002300e000231846bde8f08101258ce71f
:10505e004ff0ff3221463046fff7bffd03460028d2
:0e506e00e3d0012b0cbf4ff0ff330123ebe723
:020000040000fa
:020000040009f1
:10507c00b0f1ff3f00f08280f8b5982303fb00f3fa
:10508c003f4ad356022b06d1982303fb002393f8f7
:10509c009450012d00d0f8bd982303fb002300226f
:1050ac0083f8942093f83c3033b1354a982303fbb2
:1050bc00002393f83d3083b10446314a982303fb17
:1050cc0000235b7983b1012b23d02d48982303fb5c
:1050dc000400012380f89430dde7982303fb0023c0
:1050ec00012283f89420d6e7254a982303fb00235a
:1050fc00da6c5a65002a37d02149982303fb001338
:10510c00002159709970d9701971012159710223bc
:10511c0013721b4b982000fb0430466d327f194be9
:10512c0053f82270b36972693169b847012822d0eb
:10513c000128cad9ff23337272681149982303fbe3
:10514c000413012183f83d1000215971d96c096aaf
:10515c00d964996c31629e645368002bb5d0d268c7
:10516c00f16828469847b0e7054a982303fb0023cb
